{
  "_format": "hh-sol-artifact-1",
  "contractName": "CommentData",
  "sourceName": "contracts/community/CommentData.sol",
  "abi": [
    {
      "anonymous": false,
      "inputs": [
        {
          "indexed": false,
          "internalType": "bytes32",
          "name": "executedId",
          "type": "bytes32"
        },
        {
          "indexed": false,
          "internalType": "uint256",
          "name": "postId",
          "type": "uint256"
        },
        {
          "indexed": false,
          "internalType": "uint256",
          "name": "commentId",
          "type": "uint256"
        },
        {
          "indexed": false,
          "internalType": "address",
          "name": "sender",
          "type": "address"
        }
      ],
      "name": "BurnComment",
      "type": "event"
    },
    {
      "anonymous": false,
      "inputs": [
        {
          "indexed": false,
          "internalType": "uint8",
          "name": "version",
          "type": "uint8"
        }
      ],
      "name": "Initialized",
      "type": "event"
    },
    {
      "anonymous": false,
      "inputs": [
        {
          "indexed": false,
          "internalType": "bytes32",
          "name": "executedId",
          "type": "bytes32"
        },
        {
          "indexed": false,
          "internalType": "uint256",
          "name": "postId",
          "type": "uint256"
        },
        {
          "indexed": false,
          "internalType": "uint256",
          "name": "commentId",
          "type": "uint256"
        }
      ],
      "name": "SetGasCompensation",
      "type": "event"
    },
    {
      "anonymous": false,
      "inputs": [
        {
          "indexed": false,
          "internalType": "bytes32",
          "name": "executedId",
          "type": "bytes32"
        },
        {
          "indexed": false,
          "internalType": "uint256",
          "name": "postId",
          "type": "uint256"
        },
        {
          "indexed": false,
          "internalType": "uint256",
          "name": "commentId",
          "type": "uint256"
        },
        {
          "indexed": false,
          "internalType": "bool",
          "name": "isView",
          "type": "bool"
        }
      ],
      "name": "SetVisibility",
      "type": "event"
    },
    {
      "anonymous": false,
      "inputs": [
        {
          "indexed": false,
          "internalType": "bytes32",
          "name": "executedId",
          "type": "bytes32"
        },
        {
          "indexed": false,
          "internalType": "uint256",
          "name": "postId",
          "type": "uint256"
        },
        {
          "indexed": false,
          "internalType": "uint256",
          "name": "commentId",
          "type": "uint256"
        }
      ],
      "name": "WriteComment",
      "type": "event"
    },
    {
      "inputs": [
        {
          "components": [
            {
              "internalType": "bytes32",
              "name": "executedId",
              "type": "bytes32"
            },
            {
              "internalType": "bytes32",
              "name": "pluginName",
              "type": "bytes32"
            },
            {
              "internalType": "uint256",
              "name": "version",
              "type": "uint256"
            },
            {
              "internalType": "address",
              "name": "user",
              "type": "address"
            },
            {
              "internalType": "bytes",
              "name": "data",
              "type": "bytes"
            }
          ],
          "internalType": "struct DataTypes.GeneralVars",
          "name": "vars",
          "type": "tuple"
        }
      ],
      "name": "burnComment",
      "outputs": [
        {
          "internalType": "bool",
          "name": "",
          "type": "bool"
        }
      ],
      "stateMutability": "nonpayable",
      "type": "function"
    },
    {
      "inputs": [
        {
          "internalType": "uint256",
          "name": "_postId",
          "type": "uint256"
        }
      ],
      "name": "getCommentCount",
      "outputs": [
        {
          "internalType": "uint256",
          "name": "",
          "type": "uint256"
        }
      ],
      "stateMutability": "view",
      "type": "function"
    },
    {
      "inputs": [
        {
          "internalType": "uint256",
          "name": "_postId",
          "type": "uint256"
        },
        {
          "internalType": "uint256",
          "name": "_commentId",
          "type": "uint256"
        }
      ],
      "name": "getUpDownForComment",
      "outputs": [
        {
          "internalType": "bool",
          "name": "_up",
          "type": "bool"
        },
        {
          "internalType": "bool",
          "name": "_down",
          "type": "bool"
        }
      ],
      "stateMutability": "view",
      "type": "function"
    },
    {
      "inputs": [
        {
          "internalType": "address",
          "name": "_registry",
          "type": "address"
        }
      ],
      "name": "initialize",
      "outputs": [],
      "stateMutability": "nonpayable",
      "type": "function"
    },
    {
      "inputs": [
        {
          "internalType": "uint256",
          "name": "_postId",
          "type": "uint256"
        },
        {
          "internalType": "uint256",
          "name": "_commentId",
          "type": "uint256"
        }
      ],
      "name": "ipfsHashOf",
      "outputs": [
        {
          "internalType": "string",
          "name": "",
          "type": "string"
        }
      ],
      "stateMutability": "view",
      "type": "function"
    },
    {
      "inputs": [
        {
          "components": [
            {
              "internalType": "bytes32",
              "name": "pluginName",
              "type": "bytes32"
            },
            {
              "internalType": "uint256",
              "name": "version",
              "type": "uint256"
            },
            {
              "internalType": "bytes",
              "name": "data",
              "type": "bytes"
            }
          ],
          "internalType": "struct DataTypes.MinSimpleVars",
          "name": "vars",
          "type": "tuple"
        }
      ],
      "name": "readComment",
      "outputs": [
        {
          "components": [
            {
              "internalType": "address",
              "name": "creator",
              "type": "address"
            },
            {
              "internalType": "address",
              "name": "owner",
              "type": "address"
            },
            {
              "internalType": "address",
              "name": "communityId",
              "type": "address"
            },
            {
              "internalType": "uint256",
              "name": "timestamp",
              "type": "uint256"
            },
            {
              "internalType": "uint256",
              "name": "gasConsumption",
              "type": "uint256"
            },
            {
              "internalType": "bool",
              "name": "up",
              "type": "bool"
            },
            {
              "internalType": "bool",
              "name": "down",
              "type": "bool"
            },
            {
              "internalType": "bool",
              "name": "isView",
              "type": "bool"
            },
            {
              "internalType": "bool",
              "name": "isEncrypted",
              "type": "bool"
            },
            {
              "internalType": "bool",
              "name": "isGasCompensation",
              "type": "bool"
            },
            {
              "internalType": "string",
              "name": "ipfsHash",
              "type": "string"
            }
          ],
          "internalType": "struct InfoTypes.CommentInfo",
          "name": "outData",
          "type": "tuple"
        }
      ],
      "stateMutability": "view",
      "type": "function"
    },
    {
      "inputs": [],
      "name": "registry",
      "outputs": [
        {
          "internalType": "contract IRegistry",
          "name": "",
          "type": "address"
        }
      ],
      "stateMutability": "view",
      "type": "function"
    },
    {
      "inputs": [
        {
          "components": [
            {
              "internalType": "bytes32",
              "name": "executedId",
              "type": "bytes32"
            },
            {
              "internalType": "bytes32",
              "name": "pluginName",
              "type": "bytes32"
            },
            {
              "internalType": "uint256",
              "name": "version",
              "type": "uint256"
            },
            {
              "internalType": "uint256",
              "name": "postId",
              "type": "uint256"
            },
            {
              "internalType": "uint256",
              "name": "commentId",
              "type": "uint256"
            }
          ],
          "internalType": "struct DataTypes.GasCompensationComment",
          "name": "vars",
          "type": "tuple"
        }
      ],
      "name": "setGasCompensation",
      "outputs": [
        {
          "internalType": "uint256",
          "name": "gasConsumption",
          "type": "uint256"
        },
        {
          "internalType": "address",
          "name": "creator",
          "type": "address"
        },
        {
          "internalType": "address",
          "name": "owner",
          "type": "address"
        }
      ],
      "stateMutability": "nonpayable",
      "type": "function"
    },
    {
      "inputs": [
        {
          "components": [
            {
              "internalType": "bytes32",
              "name": "pluginName",
              "type": "bytes32"
            },
            {
              "internalType": "uint256",
              "name": "version",
              "type": "uint256"
            },
            {
              "internalType": "bytes",
              "name": "data",
              "type": "bytes"
            }
          ],
          "internalType": "struct DataTypes.MinSimpleVars",
          "name": "vars",
          "type": "tuple"
        }
      ],
      "name": "setGasConsumption",
      "outputs": [
        {
          "internalType": "bool",
          "name": "",
          "type": "bool"
        }
      ],
      "stateMutability": "nonpayable",
      "type": "function"
    },
    {
      "inputs": [
        {
          "components": [
            {
              "internalType": "bytes32",
              "name": "executedId",
              "type": "bytes32"
            },
            {
              "internalType": "bytes32",
              "name": "pluginName",
              "type": "bytes32"
            },
            {
              "internalType": "uint256",
              "name": "version",
              "type": "uint256"
            },
            {
              "internalType": "bytes",
              "name": "data",
              "type": "bytes"
            }
          ],
          "internalType": "struct DataTypes.SimpleVars",
          "name": "vars",
          "type": "tuple"
        }
      ],
      "name": "setVisibility",
      "outputs": [
        {
          "internalType": "bool",
          "name": "",
          "type": "bool"
        }
      ],
      "stateMutability": "nonpayable",
      "type": "function"
    },
    {
      "inputs": [],
      "name": "version",
      "outputs": [
        {
          "internalType": "string",
          "name": "",
          "type": "string"
        }
      ],
      "stateMutability": "pure",
      "type": "function"
    },
    {
      "inputs": [
        {
          "components": [
            {
              "internalType": "bytes32",
              "name": "executedId",
              "type": "bytes32"
            },
            {
              "internalType": "bytes32",
              "name": "pluginName",
              "type": "bytes32"
            },
            {
              "internalType": "uint256",
              "name": "version",
              "type": "uint256"
            },
            {
              "internalType": "address",
              "name": "user",
              "type": "address"
            },
            {
              "internalType": "bytes",
              "name": "data",
              "type": "bytes"
            }
          ],
          "internalType": "struct DataTypes.GeneralVars",
          "name": "vars",
          "type": "tuple"
        }
      ],
      "name": "writeComment",
      "outputs": [
        {
          "internalType": "uint256",
          "name": "",
          "type": "uint256"
        }
      ],
      "stateMutability": "nonpayable",
      "type": "function"
    }
  ],
  "bytecode": "0x60808060405234610016576116a4908161001c8239f35b600080fdfe608080604052600436101561001357600080fd5b60e0600035811c9182630d4bfb4f146112085750816313b2a5b21461109f5781633d9455f114610fd2578163467441ad14610f8b57816354fd4d5014610f3657816355ee0dc814610aae5781635d36240d146108885781637b1039991461085f578163a91a0cf11461050757508063c4d66de814610365578063ef5552f6146101815763f9d3d702146100a557600080fd5b34610142576100b3366112ce565b603754604051634068b96960e01b8152602092918390829060049082906001600160a01b03165afa90811561017557600091610147575b50816100ff61010992856060950135906115b0565b6040810190611481565b90809291810103126101425780604091356000526034835281600020838201356000528352013560036040600020015560405160018152f35b600080fd5b90508281813d831161016e575b61015e8183611300565b81010312610142575160606100ea565b503d610154565b6040513d6000823e3d90fd5b346101425761018f3661129c565b60375460405163447fb1e560e11b81526020926001600160a01b0392831692909182850135908581600481885afa9081156101755786918391600091610333575b50149485156102ca575b5050906102196080939261020e7f30950c4bbe47e14df7476fcc9e512f38912a582fbd54c580c95587bdb45c938896611421565b6040840135906115b0565b61023061022884840184611481565b810190611246565b8160005260348752604060002081600052875260056040600020610259600482015415156114d5565b6102638154611341565b601f81116102aa575b506000815501805463ff0000001916905561028960608501611521565b9160405194358552878501526040840152166060820152a160405160018152f35b6102c49082600052601f8b6000209101841c810190611535565b8961026c565b60405163af762b5560e01b81529550859060049082905afa938415610175576000946102fe575b50928314928460806101da565b935091908484813d831161032c575b6103178183611300565b810103126101425792519290916102196102f1565b503d61030d565b928092508391503d831161035e575b61034c8183611300565b810103126101425781869151886101d0565b503d610342565b3461014257602080600319360112610142576001600160a01b0360043581811690819003610142576000549160ff8360081c1615928380946104fa575b80156104e3575b156104875760ff19811660011760005583610475575b506004846bffffffffffffffffffffffff60a01b93808560335416176033556040519283809263032485f160e41b82525afa90811561017557600091610448575b501690603754161760375561041157005b7f7f26b83ff96e1f2b6a682f133852f6798a09c465da95921460cefb38474024989061ff00196000541660005560405160018152a1005b6104689150853d871161046e575b6104608183611300565b810190611322565b85610400565b503d610456565b61ffff191661010117600055846103bf565b60405162461bcd60e51b815260048101869052602e60248201527f496e697469616c697a61626c653a20636f6e747261637420697320616c72656160448201526d191e481a5b9a5d1a585b1a5e995960921b6064820152608490fd5b50303b1580156103a95750600160ff8216146103a9565b50600160ff8216106103a2565b3461014257610515366112ce565b61051d61154c565b603754604051631acaeceb60e01b81526001600160a01b03946020949290918335918716908681600481855afa908115610175578791849160009161082d575b50149182156107c8575b8215610763575b82156106ff575b505061065e946105986105a39361058e61022894611421565b88870135906115b0565b936040810190611481565b81600052603486526040600020816000528652604060002091600583015460ff8160181c16610662575b50505050846040519585879687528185511681880152840151166040860152604083015116606085015260608201516080850152608082015160a085015260a0820151151560c085015260c08201511515818501528101511515610100908185015281015115156101209081850152810151151590610140918285015201516101608084015261018083019061125c565b0390f35b60ff919293949550600361067461154c565b958a60018201541687528a6002820154168a8801526106928161137b565b6101408801526004810154606088015201546080860152818116151560a0860152818160081c16151560c086015260018686015260101c16151561010084015260005260358552604060002090600052845260ff60406000205416151561012082015290858080806105cd565b604051630403014160e11b81529250829060049082905afa90811561017557600091610732575b50811485610598610575565b9190508582813d831161075c575b61074a8183611300565b8101031261014257905161065e610726565b503d610740565b91505060405163af762b5560e01b81528681600481855afa9081156101755787918491600091610796575b50149161056e565b928092508391503d83116107c1575b6107af8183611300565b8101031261014257828791518a61078e565b503d6107a5565b915050604051638d46afe760e01b81528681600481855afa90811561017557879184916000916107fb575b501491610567565b928092508391503d8311610826575b6108148183611300565b8101031261014257828791518a6107f3565b503d61080a565b928092508391503d8311610858575b6108468183611300565b8101031261014257828791518a61055d565b503d61083c565b34610142576000366003190112610142576033546040516001600160a01b039091168152602090f35b346101425760a036600319011261014257603754604051637f3dd18160e01b81526020916001600160a01b03919083908290600490829086165afa801561017557600090610a7f575b6108df9150604435906115b0565b60643580151580610a74575b15610a2057806000526034835260406000206084359081600052845260406000209061091c600483015415156114d5565b60038201549360028160018501541693015416928060005260358652604060002082600052865260ff604060002054166109cf5760609591817f71daca5a0796d5adc734f2438fdf1fc0d57c1a88ef9df8fcdf388749a14d54a9926000526035845260406000208260005284526040600020600160ff198254161790556109bc604051928392600435846040919493926060820195825260208201520152565b0390a16040519384528301526040820152f35b60405162461bcd60e51b815260048101879052602360248201527f436f6d6d656e74446174613a2077726f6e672067617320636f6d70656e73617460448201526234b7b760e91b6064820152608490fd5b60405162461bcd60e51b815260048101849052602660248201527f436f6d6d656e74446174613a2077726f6e6720706f73744964206f7220636f6d6044820152651b595b9d125960d21b6064820152608490fd5b5060843515156108eb565b508281813d8311610aa7575b610a958183611300565b81010312610142576108df90516108d1565b503d610a8b565b3461014257610abc3661129c565b603754604051634068b96960e01b81526001600160a01b0390911690602083810135919081600481865afa8015610175578291600091610f01575b5014918215610e94575b50610b0e610b1992611421565b6040830135906115b0565b610b266080820182611481565b810192906101008185031261014257610b3e816114b4565b50610b4b604082016114b4565b92606082013567ffffffffffffffff811161014257820185601f820112156101425780359067ffffffffffffffff8211610e685760405196610b97601f8401601f191660200189611300565b8288526020838301011161014257816000926020809301838a013787010152610bc2608083016114c8565b610bce60a084016114c8565b93610be6610bde60c086016114c8565b9185016114c8565b91610bf6602086013515156114d5565b60208501356000526036602052604060002080546000198114610e7e57600101905560208501356000526036602052604060002054956034602052604060002087600052602052604060002097610c4f60608701611521565b60018a0180546001600160a01b039283166001600160a01b03199182161790915560028b018054939092169216919091179055885167ffffffffffffffff8111610e6857602099610ca08a54611341565b601f8111610e2d575b508a90601f8311600114610d905793610d599361ff0060058c9d8f9c9b9896807fd1ed58082d9b01f3b89ad91195e11eaafc432737e1614d8ab7d78ef2a988a0a39f9b97610d7a9d99600092610d85575b50508160011b916000199060031b1c19161781555b426004820155019360ff62ff0000865492151560101b16941515169062ffffff19161791151560081b16171781559063ff000000825491151560181b169063ff0000001916179055565b60405194859401359035846040919493926060820195825260208201520152565b0390a1604051908152f35b015190503880610cfa565b90601f198316918b6000528c6000209260005b818110610e16575060058c9d8f9c9b9894877fd1ed58082d9b01f3b89ad91195e11eaafc432737e1614d8ab7d78ef2a988a0a39f9b97600192610d599b97610d7a9f9b61ff009810610dfd575b505050811b018155610d0f565b015160001960f88460031b161c19169055388080610df0565b92938e600181928786015181550195019301610da3565b610e58908b6000528c600020601f850160051c8101918e8610610e5e575b601f0160051c0190611535565b8b610ca9565b9091508190610e4b565b634e487b7160e01b600052604160045260246000fd5b634e487b7160e01b600052601160045260246000fd5b604051636a59665f60e01b81529250602090839060049082905afa91821561017557600092610ecb575b5090811490610b0e610b01565b91506020823d602011610ef9575b81610ee660209383611300565b8101031261014257905190610b0e610ebe565b3d9150610ed9565b9150506020813d602011610f2e575b81610f1d60209383611300565b810103126101425781905186610af7565b3d9150610f10565b3461014257600036600319011261014257604051604081019080821067ffffffffffffffff831117610e685761065e9160405260018152603160f81b602082015260405191829160208352602083019061125c565b3461014257610f9936611230565b90600052603460205260406000209060005260205261065e610fbe604060002061137b565b60405191829160208352602083019061125c565b3461014257610fe036611230565b90600052603460205260406000209060005260205260406000209060405190610120820182811067ffffffffffffffff821117610e685760409360059185526110288161137b565b845260018060a01b0380600183015416602086015260028201541685850152600381015460608501526004810154608085015201549161010060ff8085161515948560a0850152818160081c161515948560c0860152828260101c1615159085015260181c16151591015282519182526020820152f35b3461014257602060031981813601126101425760043567ffffffffffffffff811161014257608081600401928236030112610142576037546040516351394b7760e11b815291908490839060049082906001600160a01b03165afa918215610175576000926111d8575b506064816111216060946044611128950135906115b0565b0183611481565b9080929181010312610142577fbb9075083feed1218a91bb704715bfbefe4dfbcdb50a86a6cf24c36c9a9c28469181608092359061116c60408783013592016114c8565b91806000526034875260406000208260005287526111b7836005604060002061119a600482015415156114d5565b019063ff000000825491151560181b169063ff0000001916179055565b6040519335845286840152604083015215156060820152a160405160018152f35b91508382813d8311611201575b6111ef8183611300565b81010312610142579051906064611109565b503d6111e5565b3461014257602036600319011261014257602090600435600052603682526040600020548152f35b6040906003190112610142576004359060243590565b9190826040910312610142576020823592013590565b919082519283825260005b848110611288575050826000602080949584010152601f8019910116010190565b602081830181015184830182015201611267565b60031990602081830112610142576004359167ffffffffffffffff8311610142578260a0920301126101425760040190565b60031990602081830112610142576004359167ffffffffffffffff831161014257826060920301126101425760040190565b90601f8019910116810190811067ffffffffffffffff821117610e6857604052565b9081602091031261014257516001600160a01b03811681036101425790565b90600182811c92168015611371575b602083101461135b57565b634e487b7160e01b600052602260045260246000fd5b91607f1691611350565b906040519182600082549261138f84611341565b9081845260019485811690816000146113fe57506001146113bb575b50506113b992500383611300565b565b9093915060005260209081600020936000915b8183106113e65750506113b9935082010138806113ab565b855488840185015294850194879450918301916113ce565b9150506113b994506020925060ff191682840152151560051b82010138806113ab565b1561142857565b60405162461bcd60e51b815260206004820152602b60248201527f506f7374446174613a2077726f6e672072656164696e672f77726974696e672060448201526a3837b9ba1038363ab3b4b760a91b6064820152608490fd5b903590601e1981360301821215610142570180359067ffffffffffffffff82116101425760200191813603831361014257565b35906001600160a01b038216820361014257565b3590811515820361014257565b156114dc57565b60405162461bcd60e51b815260206004820152601960248201527f436f6d6d656e74446174613a2077726f6e6720706f73744964000000000000006044820152606490fd5b356001600160a01b03811681036101425790565b818110611540575050565b60008155600101611535565b60405190610160820182811067ffffffffffffffff821117610e6857604052606061014083600080825280602083015280604083015280848301528060808301528060a08301528060c08301528060e0830152806101008301526101208201520152565b90602060018060a01b039160448360335416946040519586938492634a6aa2bd60e11b8452600484015260248301525afa9182156101755760009261164e575b50339116036115fb57565b60405162461bcd60e51b815260206004820152602560248201527f436f6d6d656e74446174613a2063616c6c6572206973206e6f74207468652070604482015264363ab3b4b760d91b6064820152608490fd5b61166791925060203d811161046e576104608183611300565b90386115f056fea2646970667358221220ecfcd92c3508721da281239b20cfe0d8c1bef660df7591e3942aac26e6dc165b64736f6c63430008130033",
  "linkReferences": {},
  "deployedLinkReferences": {}
}